{
  "contractName": "Land",
  "abi": [
    {
      "inputs": [],
      "stateMutability": "nonpayable",
      "type": "constructor"
    },
    {
      "inputs": [
        {
          "internalType": "address",
          "name": "",
          "type": "address"
        }
      ],
      "name": "AdminMapping",
      "outputs": [
        {
          "internalType": "uint256",
          "name": "id",
          "type": "uint256"
        },
        {
          "internalType": "address",
          "name": "_addr",
          "type": "address"
        },
        {
          "internalType": "string",
          "name": "name",
          "type": "string"
        },
        {
          "internalType": "uint256",
          "name": "age",
          "type": "uint256"
        },
        {
          "internalType": "string",
          "name": "designation",
          "type": "string"
        },
        {
          "internalType": "string",
          "name": "city",
          "type": "string"
        }
      ],
      "stateMutability": "view",
      "type": "function",
      "constant": true
    },
    {
      "inputs": [
        {
          "internalType": "address",
          "name": "",
          "type": "address"
        }
      ],
      "name": "UserMapping",
      "outputs": [
        {
          "internalType": "address",
          "name": "id",
          "type": "address"
        },
        {
          "internalType": "string",
          "name": "name",
          "type": "string"
        },
        {
          "internalType": "uint256",
          "name": "age",
          "type": "uint256"
        },
        {
          "internalType": "string",
          "name": "city",
          "type": "string"
        },
        {
          "internalType": "string",
          "name": "cnic",
          "type": "string"
        },
        {
          "internalType": "uint256",
          "name": "mobile",
          "type": "uint256"
        },
        {
          "internalType": "bool",
          "name": "isUserVerified",
          "type": "bool"
        }
      ],
      "stateMutability": "view",
      "type": "function",
      "constant": true
    },
    {
      "inputs": [],
      "name": "userCount",
      "outputs": [
        {
          "internalType": "uint256",
          "name": "",
          "type": "uint256"
        }
      ],
      "stateMutability": "view",
      "type": "function",
      "constant": true
    },
    {
      "inputs": [
        {
          "internalType": "address",
          "name": "_addr",
          "type": "address"
        },
        {
          "internalType": "uint256",
          "name": "_secP",
          "type": "uint256"
        }
      ],
      "name": "isLogin",
      "outputs": [
        {
          "internalType": "uint256",
          "name": "",
          "type": "uint256"
        }
      ],
      "stateMutability": "view",
      "type": "function",
      "constant": true
    },
    {
      "inputs": [
        {
          "internalType": "address",
          "name": "_addr",
          "type": "address"
        }
      ],
      "name": "changeSuperAdmin",
      "outputs": [],
      "stateMutability": "nonpayable",
      "type": "function"
    },
    {
      "inputs": [
        {
          "internalType": "address",
          "name": "_addr1",
          "type": "address"
        }
      ],
      "name": "addPhysicalVerification",
      "outputs": [],
      "stateMutability": "nonpayable",
      "type": "function"
    },
    {
      "inputs": [
        {
          "internalType": "address",
          "name": "_addr",
          "type": "address"
        },
        {
          "internalType": "string",
          "name": "_name",
          "type": "string"
        },
        {
          "internalType": "uint256",
          "name": "_age",
          "type": "uint256"
        },
        {
          "internalType": "string",
          "name": "_designation",
          "type": "string"
        },
        {
          "internalType": "string",
          "name": "_city",
          "type": "string"
        }
      ],
      "name": "addAdmin",
      "outputs": [
        {
          "internalType": "bool",
          "name": "",
          "type": "bool"
        }
      ],
      "stateMutability": "nonpayable",
      "type": "function"
    },
    {
      "inputs": [],
      "name": "ReturnAllAdminList",
      "outputs": [
        {
          "internalType": "address[]",
          "name": "",
          "type": "address[]"
        }
      ],
      "stateMutability": "view",
      "type": "function",
      "constant": true
    },
    {
      "inputs": [
        {
          "internalType": "address",
          "name": "_addr",
          "type": "address"
        }
      ],
      "name": "removeAdminAuthFailed",
      "outputs": [],
      "stateMutability": "nonpayable",
      "type": "function"
    },
    {
      "inputs": [
        {
          "internalType": "address",
          "name": "_addr",
          "type": "address"
        }
      ],
      "name": "removeAdmin",
      "outputs": [],
      "stateMutability": "nonpayable",
      "type": "function"
    },
    {
      "inputs": [
        {
          "internalType": "address",
          "name": "_id",
          "type": "address"
        }
      ],
      "name": "isAdmin",
      "outputs": [
        {
          "internalType": "bool",
          "name": "",
          "type": "bool"
        }
      ],
      "stateMutability": "view",
      "type": "function",
      "constant": true
    },
    {
      "inputs": [
        {
          "internalType": "address",
          "name": "_addr",
          "type": "address"
        }
      ],
      "name": "isUserRegistered",
      "outputs": [
        {
          "internalType": "bool",
          "name": "",
          "type": "bool"
        }
      ],
      "stateMutability": "view",
      "type": "function",
      "constant": true
    },
    {
      "inputs": [
        {
          "internalType": "string",
          "name": "_name",
          "type": "string"
        },
        {
          "internalType": "uint256",
          "name": "_age",
          "type": "uint256"
        },
        {
          "internalType": "string",
          "name": "_city",
          "type": "string"
        },
        {
          "internalType": "string",
          "name": "_cnic",
          "type": "string"
        },
        {
          "internalType": "uint256",
          "name": "_mobile",
          "type": "uint256"
        }
      ],
      "name": "registerUser",
      "outputs": [],
      "stateMutability": "nonpayable",
      "type": "function"
    },
    {
      "inputs": [
        {
          "internalType": "address",
          "name": "id",
          "type": "address"
        }
      ],
      "name": "isUserVerified",
      "outputs": [
        {
          "internalType": "bool",
          "name": "",
          "type": "bool"
        }
      ],
      "stateMutability": "view",
      "type": "function",
      "constant": true
    },
    {
      "inputs": [
        {
          "internalType": "address",
          "name": "_userId",
          "type": "address"
        }
      ],
      "name": "verifyUser",
      "outputs": [],
      "stateMutability": "nonpayable",
      "type": "function"
    },
    {
      "inputs": [],
      "name": "ReturnAllUserList",
      "outputs": [
        {
          "internalType": "address[]",
          "name": "",
          "type": "address[]"
        }
      ],
      "stateMutability": "view",
      "type": "function",
      "constant": true
    },
    {
      "inputs": [
        {
          "internalType": "address",
          "name": "_addr",
          "type": "address"
        }
      ],
      "name": "removeUser",
      "outputs": [],
      "stateMutability": "nonpayable",
      "type": "function"
    }
  ],
  "bytecode": "0x608060405234801561001057600080fd5b50336000806101000a81548173ffffffffffffffffffffffffffffffffffffffff021916908373ffffffffffffffffffffffffffffffffffffffff1602179055506129da806100606000396000f3fe608060405234801561001057600080fd5b506004361061010b5760003560e01c806360b57961116100a2578063a13cc48711610071578063a13cc487146102b9578063ace417e0146102d5578063b00263d914610305578063d335476114610323578063d61ff68c146103535761010b565b806360b579611461021c57806373e2372f146102385780637fd1be391461026d578063985751881461029d5761010b565b806341858c4b116100de57806341858c4b146101aa5780634d13eb18146101c65780634d813120146101e2578063553a998d146101fe5761010b565b806307973ccf14610110578063163f75221461012e5780631785f53c1461015e57806324d7806c1461017a575b600080fd5b610118610389565b6040516101259190611cf0565b60405180910390f35b61014860048036038101906101439190611d7d565b61038f565b6040516101559190611dc5565b60405180910390f35b61017860048036038101906101739190611d7d565b6103f6565b005b610194600480360381019061018f9190611d7d565b610753565b6040516101a19190611dc5565b60405180910390f35b6101c460048036038101906101bf9190611d7d565b6107ba565b005b6101e060048036038101906101db9190611f52565b61088b565b005b6101fc60048036038101906101f79190611d7d565b610b6d565b005b610206610bdd565b60405161021391906120df565b60405180910390f35b61023660048036038101906102319190611d7d565b610c7d565b005b610252600480360381019061024d9190611d7d565b610f4c565b60405161026496959493929190612198565b60405180910390f35b6102876004803603810190610282919061220e565b611140565b6040516102949190611dc5565b60405180910390f35b6102b760048036038101906102b29190611d7d565b6113f5565b005b6102d360048036038101906102ce9190611d7d565b6116d6565b005b6102ef60048036038101906102ea9190611d7d565b6117a8565b6040516102fc9190611dc5565b60405180910390f35b61030d611801565b60405161031a91906120df565b60405180910390f35b61033d600480360381019061033891906122dd565b6118a1565b60405161034a9190611cf0565b60405180910390f35b61036d60048036038101906103689190611d7d565b611ad0565b604051610380979695949392919061231d565b60405180910390f35b60035481565b6000600a60008373ffffffffffffffffffffffffffffffffffffffff1673ffffffffffffffffffffffffffffffffffffffff16815260200190815260200160002060009054906101000a900460ff16156103ec57600190506103f1565b600090505b919050565b60008054906101000a900473ffffffffffffffffffffffffffffffffffffffff1673ffffffffffffffffffffffffffffffffffffffff163373ffffffffffffffffffffffffffffffffffffffff1614610484576040517f08c379a000000000000000000000000000000000000000000000000000000000815260040161047b906123ed565b60405180910390fd5b600660008273ffffffffffffffffffffffffffffffffffffffff1673ffffffffffffffffffffffffffffffffffffffff16815260200190815260200160002060009054906101000a900460ff16610510576040517f08c379a000000000000000000000000000000000000000000000000000000000815260040161050790612459565b60405180910390fd5b6000600660008373ffffffffffffffffffffffffffffffffffffffff1673ffffffffffffffffffffffffffffffffffffffff16815260200190815260200160002060006101000a81548160ff0219169083151502179055506000600560006001815260200190815260200160002080549050905060005b8181101561074e578273ffffffffffffffffffffffffffffffffffffffff16600560006001815260200190815260200160002082815481106105cc576105cb612479565b5b9060005260206000200160009054906101000a900473ffffffffffffffffffffffffffffffffffffffff1673ffffffffffffffffffffffffffffffffffffffff160361073b57600560006001815260200190815260200160002060018361063391906124d7565b8154811061064457610643612479565b5b9060005260206000200160009054906101000a900473ffffffffffffffffffffffffffffffffffffffff166005600060018152602001908152602001600020828154811061069557610694612479565b5b9060005260206000200160006101000a81548173ffffffffffffffffffffffffffffffffffffffff021916908373ffffffffffffffffffffffffffffffffffffffff16021790555060056000600181526020019081526020016000208054806107015761070061250b565b5b6001900381819060005260206000200160006101000a81549073ffffffffffffffffffffffffffffffffffffffff0219169055905561074e565b80806107469061253a565b915050610587565b505050565b6000600660008373ffffffffffffffffffffffffffffffffffffffff1673ffffffffffffffffffffffffffffffffffffffff16815260200190815260200160002060009054906101000a900460ff16156107b057600190506107b5565b600090505b919050565b60008054906101000a900473ffffffffffffffffffffffffffffffffffffffff1673ffffffffffffffffffffffffffffffffffffffff163373ffffffffffffffffffffffffffffffffffffffff1614610848576040517f08c379a000000000000000000000000000000000000000000000000000000000815260040161083f906125ce565b60405180910390fd5b806000806101000a81548173ffffffffffffffffffffffffffffffffffffffff021916908373ffffffffffffffffffffffffffffffffffffffff16021790555050565b600a60003373ffffffffffffffffffffffffffffffffffffffff1673ffffffffffffffffffffffffffffffffffffffff16815260200190815260200160002060009054906101000a900460ff16156108e257600080fd5b6001600a60003373ffffffffffffffffffffffffffffffffffffffff1673ffffffffffffffffffffffffffffffffffffffff16815260200190815260200160002060006101000a81548160ff0219169083151502179055506003600081548092919061094d9061253a565b91905055506009600060018152602001908152602001600020339080600181540180825580915050600190039060005260206000200160009091909190916101000a81548173ffffffffffffffffffffffffffffffffffffffff021916908373ffffffffffffffffffffffffffffffffffffffff1602179055503360086000600354815260200190815260200160002060006101000a81548173ffffffffffffffffffffffffffffffffffffffff021916908373ffffffffffffffffffffffffffffffffffffffff1602179055506040518060e001604052803373ffffffffffffffffffffffffffffffffffffffff16815260200186815260200185815260200184815260200183815260200182815260200160001515815250600760003373ffffffffffffffffffffffffffffffffffffffff1673ffffffffffffffffffffffffffffffffffffffff16815260200190815260200160002060008201518160000160006101000a81548173ffffffffffffffffffffffffffffffffffffffff021916908373ffffffffffffffffffffffffffffffffffffffff1602179055506020820151816001019081610b0291906127fa565b50604082015181600201556060820151816003019081610b2291906127fa565b506080820151816004019081610b3891906127fa565b5060a0820151816005015560c08201518160060160006101000a81548160ff0219169083151502179055509050505050505050565b610b7633610753565b610b7f57600080fd5b6001600760008373ffffffffffffffffffffffffffffffffffffffff1673ffffffffffffffffffffffffffffffffffffffff16815260200190815260200160002060060160006101000a81548160ff02191690831515021790555050565b60606009600060018152602001908152602001600020805480602002602001604051908101604052809291908181526020018280548015610c7357602002820191906000526020600020905b8160009054906101000a900473ffffffffffffffffffffffffffffffffffffffff1673ffffffffffffffffffffffffffffffffffffffff1681526020019060010190808311610c29575b5050505050905090565b600660008273ffffffffffffffffffffffffffffffffffffffff1673ffffffffffffffffffffffffffffffffffffffff16815260200190815260200160002060009054906101000a900460ff16610d09576040517f08c379a0000000000000000000000000000000000000000000000000000000008152600401610d0090612459565b60405180910390fd5b6000600660008373ffffffffffffffffffffffffffffffffffffffff1673ffffffffffffffffffffffffffffffffffffffff16815260200190815260200160002060006101000a81548160ff0219169083151502179055506000600560006001815260200190815260200160002080549050905060005b81811015610f47578273ffffffffffffffffffffffffffffffffffffffff1660056000600181526020019081526020016000208281548110610dc557610dc4612479565b5b9060005260206000200160009054906101000a900473ffffffffffffffffffffffffffffffffffffffff1673ffffffffffffffffffffffffffffffffffffffff1603610f34576005600060018152602001908152602001600020600183610e2c91906124d7565b81548110610e3d57610e3c612479565b5b9060005260206000200160009054906101000a900473ffffffffffffffffffffffffffffffffffffffff1660056000600181526020019081526020016000208281548110610e8e57610e8d612479565b5b9060005260206000200160006101000a81548173ffffffffffffffffffffffffffffffffffffffff021916908373ffffffffffffffffffffffffffffffffffffffff1602179055506005600060018152602001908152602001600020805480610efa57610ef961250b565b5b6001900381819060005260206000200160006101000a81549073ffffffffffffffffffffffffffffffffffffffff02191690559055610f47565b8080610f3f9061253a565b915050610d80565b505050565b60046020528060005260406000206000915090508060000154908060010160009054906101000a900473ffffffffffffffffffffffffffffffffffffffff1690806002018054610f9b9061261d565b80601f0160208091040260200160405190810160405280929190818152602001828054610fc79061261d565b80156110145780601f10610fe957610100808354040283529160200191611014565b820191906000526020600020905b815481529060010190602001808311610ff757829003601f168201915b50505050509080600301549080600401805461102f9061261d565b80601f016020809104026020016040519081016040528092919081815260200182805461105b9061261d565b80156110a85780601f1061107d576101008083540402835291602001916110a8565b820191906000526020600020905b81548152906001019060200180831161108b57829003601f168201915b5050505050908060050180546110bd9061261d565b80601f01602080910402602001604051908101604052809291908181526020018280546110e99061261d565b80156111365780601f1061110b57610100808354040283529160200191611136565b820191906000526020600020905b81548152906001019060200180831161111957829003601f168201915b5050505050905086565b60003373ffffffffffffffffffffffffffffffffffffffff1660008054906101000a900473ffffffffffffffffffffffffffffffffffffffff1673ffffffffffffffffffffffffffffffffffffffff161461119e57600090506113ec565b3373ffffffffffffffffffffffffffffffffffffffff1660008054906101000a900473ffffffffffffffffffffffffffffffffffffffff1673ffffffffffffffffffffffffffffffffffffffff16146111f657600080fd5b6001600660008873ffffffffffffffffffffffffffffffffffffffff1673ffffffffffffffffffffffffffffffffffffffff16815260200190815260200160002060006101000a81548160ff0219169083151502179055506005600060018152602001908152602001600020869080600181540180825580915050600190039060005260206000200160009091909190916101000a81548173ffffffffffffffffffffffffffffffffffffffff021916908373ffffffffffffffffffffffffffffffffffffffff1602179055506040518060c0016040528060025481526020018773ffffffffffffffffffffffffffffffffffffffff16815260200186815260200185815260200184815260200183815250600460008873ffffffffffffffffffffffffffffffffffffffff1673ffffffffffffffffffffffffffffffffffffffff1681526020019081526020016000206000820151816000015560208201518160010160006101000a81548173ffffffffffffffffffffffffffffffffffffffff021916908373ffffffffffffffffffffffffffffffffffffffff16021790555060408201518160020190816113ad91906127fa565b506060820151816003015560808201518160040190816113cd91906127fa565b5060a08201518160050190816113e391906127fa565b50905050600190505b95945050505050565b6113fe33610753565b61140757600080fd5b600a60008273ffffffffffffffffffffffffffffffffffffffff1673ffffffffffffffffffffffffffffffffffffffff16815260200190815260200160002060009054906101000a900460ff16611493576040517f08c379a000000000000000000000000000000000000000000000000000000000815260040161148a90612918565b60405180910390fd5b6000600a60008373ffffffffffffffffffffffffffffffffffffffff1673ffffffffffffffffffffffffffffffffffffffff16815260200190815260200160002060006101000a81548160ff0219169083151502179055506000600960006001815260200190815260200160002080549050905060005b818110156116d1578273ffffffffffffffffffffffffffffffffffffffff166009600060018152602001908152602001600020828154811061154f5761154e612479565b5b9060005260206000200160009054906101000a900473ffffffffffffffffffffffffffffffffffffffff1673ffffffffffffffffffffffffffffffffffffffff16036116be5760096000600181526020019081526020016000206001836115b691906124d7565b815481106115c7576115c6612479565b5b9060005260206000200160009054906101000a900473ffffffffffffffffffffffffffffffffffffffff166009600060018152602001908152602001600020828154811061161857611617612479565b5b9060005260206000200160006101000a81548173ffffffffffffffffffffffffffffffffffffffff021916908373ffffffffffffffffffffffffffffffffffffffff16021790555060096000600181526020019081526020016000208054806116845761168361250b565b5b6001900381819060005260206000200160006101000a81549073ffffffffffffffffffffffffffffffffffffffff021916905590556116d1565b80806116c99061253a565b91505061150a565b505050565b60008054906101000a900473ffffffffffffffffffffffffffffffffffffffff1673ffffffffffffffffffffffffffffffffffffffff163373ffffffffffffffffffffffffffffffffffffffff1614611764576040517f08c379a000000000000000000000000000000000000000000000000000000000815260040161175b90612984565b60405180910390fd5b80600160006101000a81548173ffffffffffffffffffffffffffffffffffffffff021916908373ffffffffffffffffffffffffffffffffffffffff16021790555050565b6000600760008373ffffffffffffffffffffffffffffffffffffffff1673ffffffffffffffffffffffffffffffffffffffff16815260200190815260200160002060060160009054906101000a900460ff169050919050565b6060600560006001815260200190815260200160002080548060200260200160405190810160405280929190818152602001828054801561189757602002820191906000526020600020905b8160009054906101000a900473ffffffffffffffffffffffffffffffffffffffff1673ffffffffffffffffffffffffffffffffffffffff168152602001906001019080831161184d575b5050505050905090565b60008060009054906101000a900473ffffffffffffffffffffffffffffffffffffffff1673ffffffffffffffffffffffffffffffffffffffff168373ffffffffffffffffffffffffffffffffffffffff161480156118ff5750607b82145b1561190d5760019050611aca565b60008054906101000a900473ffffffffffffffffffffffffffffffffffffffff1673ffffffffffffffffffffffffffffffffffffffff168373ffffffffffffffffffffffffffffffffffffffff16148015611969575061014182145b156119775760029050611aca565b600660008473ffffffffffffffffffffffffffffffffffffffff1673ffffffffffffffffffffffffffffffffffffffff16815260200190815260200160002060009054906101000a900460ff1680156119d157506101c882145b156119df5760049050611aca565b600660008473ffffffffffffffffffffffffffffffffffffffff1673ffffffffffffffffffffffffffffffffffffffff16815260200190815260200160002060009054906101000a900460ff168015611a39575061028e82145b15611a475760059050611aca565b600a60008473ffffffffffffffffffffffffffffffffffffffff1673ffffffffffffffffffffffffffffffffffffffff16815260200190815260200160002060009054906101000a900460ff168015611aa1575061031582145b15611ac557611aaf836117a8565b611abc5760069050611aca565b60079050611aca565b600390505b92915050565b60076020528060005260406000206000915090508060000160009054906101000a900473ffffffffffffffffffffffffffffffffffffffff1690806001018054611b199061261d565b80601f0160208091040260200160405190810160405280929190818152602001828054611b459061261d565b8015611b925780601f10611b6757610100808354040283529160200191611b92565b820191906000526020600020905b815481529060010190602001808311611b7557829003601f168201915b505050505090806002015490806003018054611bad9061261d565b80601f0160208091040260200160405190810160405280929190818152602001828054611bd99061261d565b8015611c265780601f10611bfb57610100808354040283529160200191611c26565b820191906000526020600020905b815481529060010190602001808311611c0957829003601f168201915b505050505090806004018054611c3b9061261d565b80601f0160208091040260200160405190810160405280929190818152602001828054611c679061261d565b8015611cb45780601f10611c8957610100808354040283529160200191611cb4565b820191906000526020600020905b815481529060010190602001808311611c9757829003601f168201915b5050505050908060050154908060060160009054906101000a900460ff16905087565b6000819050919050565b611cea81611cd7565b82525050565b6000602082019050611d056000830184611ce1565b92915050565b6000604051905090565b600080fd5b600080fd5b600073ffffffffffffffffffffffffffffffffffffffff82169050919050565b6000611d4a82611d1f565b9050919050565b611d5a81611d3f565b8114611d6557600080fd5b50565b600081359050611d7781611d51565b92915050565b600060208284031215611d9357611d92611d15565b5b6000611da184828501611d68565b91505092915050565b60008115159050919050565b611dbf81611daa565b82525050565b6000602082019050611dda6000830184611db6565b92915050565b600080fd5b600080fd5b6000601f19601f8301169050919050565b7f4e487b7100000000000000000000000000000000000000000000000000000000600052604160045260246000fd5b611e3382611dea565b810181811067ffffffffffffffff82111715611e5257611e51611dfb565b5b80604052505050565b6000611e65611d0b565b9050611e718282611e2a565b919050565b600067ffffffffffffffff821115611e9157611e90611dfb565b5b611e9a82611dea565b9050602081019050919050565b82818337600083830152505050565b6000611ec9611ec484611e76565b611e5b565b905082815260208101848484011115611ee557611ee4611de5565b5b611ef0848285611ea7565b509392505050565b600082601f830112611f0d57611f0c611de0565b5b8135611f1d848260208601611eb6565b91505092915050565b611f2f81611cd7565b8114611f3a57600080fd5b50565b600081359050611f4c81611f26565b92915050565b600080600080600060a08688031215611f6e57611f6d611d15565b5b600086013567ffffffffffffffff811115611f8c57611f8b611d1a565b5b611f9888828901611ef8565b9550506020611fa988828901611f3d565b945050604086013567ffffffffffffffff811115611fca57611fc9611d1a565b5b611fd688828901611ef8565b935050606086013567ffffffffffffffff811115611ff757611ff6611d1a565b5b61200388828901611ef8565b925050608061201488828901611f3d565b9150509295509295909350565b600081519050919050565b600082825260208201905092915050565b6000819050602082019050919050565b61205681611d3f565b82525050565b6000612068838361204d565b60208301905092915050565b6000602082019050919050565b600061208c82612021565b612096818561202c565b93506120a18361203d565b8060005b838110156120d25781516120b9888261205c565b97506120c483612074565b9250506001810190506120a5565b5085935050505092915050565b600060208201905081810360008301526120f98184612081565b905092915050565b61210a81611d3f565b82525050565b600081519050919050565b600082825260208201905092915050565b60005b8381101561214a57808201518184015260208101905061212f565b83811115612159576000848401525b50505050565b600061216a82612110565b612174818561211b565b935061218481856020860161212c565b61218d81611dea565b840191505092915050565b600060c0820190506121ad6000830189611ce1565b6121ba6020830188612101565b81810360408301526121cc818761215f565b90506121db6060830186611ce1565b81810360808301526121ed818561215f565b905081810360a0830152612201818461215f565b9050979650505050505050565b600080600080600060a0868803121561222a57612229611d15565b5b600061223888828901611d68565b955050602086013567ffffffffffffffff81111561225957612258611d1a565b5b61226588828901611ef8565b945050604061227688828901611f3d565b935050606086013567ffffffffffffffff81111561229757612296611d1a565b5b6122a388828901611ef8565b925050608086013567ffffffffffffffff8111156122c4576122c3611d1a565b5b6122d088828901611ef8565b9150509295509295909350565b600080604083850312156122f4576122f3611d15565b5b600061230285828601611d68565b925050602061231385828601611f3d565b9150509250929050565b600060e082019050612332600083018a612101565b8181036020830152612344818961215f565b90506123536040830188611ce1565b8181036060830152612365818761215f565b90508181036080830152612379818661215f565b905061238860a0830185611ce1565b61239560c0830184611db6565b98975050505050505050565b7f596f7520617265206e6f742053757065722041646d696e000000000000000000600082015250565b60006123d760178361211b565b91506123e2826123a1565b602082019050919050565b60006020820190508181036000830152612406816123ca565b9050919050565b7f41646d696e206e6f7420666f756e640000000000000000000000000000000000600082015250565b6000612443600f8361211b565b915061244e8261240d565b602082019050919050565b6000602082019050818103600083015261247281612436565b9050919050565b7f4e487b7100000000000000000000000000000000000000000000000000000000600052603260045260246000fd5b7f4e487b7100000000000000000000000000000000000000000000000000000000600052601160045260246000fd5b60006124e282611cd7565b91506124ed83611cd7565b925082821015612500576124ff6124a8565b5b828203905092915050565b7f4e487b7100000000000000000000000000000000000000000000000000000000600052603160045260246000fd5b600061254582611cd7565b91507fffffffffffffffffffffffffffffffffffffffffffffffffffffffffffffffff8203612577576125766124a8565b5b600182019050919050565b7f796f7520617265206e6f7420737570657241646d696e00000000000000000000600082015250565b60006125b860168361211b565b91506125c382612582565b602082019050919050565b600060208201905081810360008301526125e7816125ab565b9050919050565b7f4e487b7100000000000000000000000000000000000000000000000000000000600052602260045260246000fd5b6000600282049050600182168061263557607f821691505b602082108103612648576126476125ee565b5b50919050565b60008190508160005260206000209050919050565b60006020601f8301049050919050565b600082821b905092915050565b6000600883026126b07fffffffffffffffffffffffffffffffffffffffffffffffffffffffffffffffff82612673565b6126ba8683612673565b95508019841693508086168417925050509392505050565b6000819050919050565b60006126f76126f26126ed84611cd7565b6126d2565b611cd7565b9050919050565b6000819050919050565b612711836126dc565b61272561271d826126fe565b848454612680565b825550505050565b600090565b61273a61272d565b612745818484612708565b505050565b5b818110156127695761275e600082612732565b60018101905061274b565b5050565b601f8211156127ae5761277f8161264e565b61278884612663565b81016020851015612797578190505b6127ab6127a385612663565b83018261274a565b50505b505050565b600082821c905092915050565b60006127d1600019846008026127b3565b1980831691505092915050565b60006127ea83836127c0565b9150826002028217905092915050565b61280382612110565b67ffffffffffffffff81111561281c5761281b611dfb565b5b612826825461261d565b61283182828561276d565b600060209050601f8311600181146128645760008415612852578287015190505b61285c85826127de565b8655506128c4565b601f1984166128728661264e565b60005b8281101561289a57848901518255600182019150602085019450602081019050612875565b868310156128b757848901516128b3601f8916826127c0565b8355505b6001600288020188555050505b505050505050565b7f55736572206e6f7420666f756e64000000000000000000000000000000000000600082015250565b6000612902600e8361211b565b915061290d826128cc565b602082019050919050565b60006020820190508181036000830152612931816128f5565b9050919050565b7f796f7520617265206e6f7420636f6e74726163744f776e657200000000000000600082015250565b600061296e60198361211b565b915061297982612938565b602082019050919050565b6000602082019050818103600083015261299d81612961565b905091905056fea2646970667358221220d451a83e3d32a214cb109755321734f7310f8700af870f582dafb90439762ba164736f6c634300080f0033",
  "immutableReferences": {},
  "source": "// SPDX-License-Identifier: GPL-3.0\npragma solidity >= 0.5.2;\n\ncontract Land {\n    address superAdmin;\n    address physicalVerification;\n\n    constructor() {\n        superAdmin = msg.sender;\n    }\n\n    struct Admin {\n        uint id;\n        address _addr;\n        string name;\n        uint age;\n        string designation;\n        string city;\n    }\n\n     struct User{\n        address id;\n        string name;\n        uint age;\n        string city;\n        string cnic;\n        uint mobile;\n        bool isUserVerified;\n    }\n\n    uint adminCount;\n    uint public userCount;\n\n    mapping(address => Admin) public AdminMapping;\n    mapping(uint => address[]) allAdminList;\n    mapping(address => bool)  RegisteredAdminMapping;\n\n    mapping(address => User) public UserMapping;\n    mapping(uint => address)  AllUsers;\n    mapping(uint => address[])  allUsersList;\n    mapping(address => bool)  RegisteredUserMapping;\n\n// general\n    function isLogin(address _addr, uint _secP) public view returns(uint){\n        if(_addr==superAdmin && _secP == 123)\n            return 1;\n        else if(_addr == superAdmin && _secP == 321)\n            return 2;\n        else if(RegisteredAdminMapping[_addr] && _secP == 456)\n            return 4;\n        else if(RegisteredAdminMapping[_addr] && _secP == 654){\n            return 5;\n        }else if(RegisteredUserMapping[_addr] && _secP == 789) {\n            if(!isUserVerified(_addr))\n                return 6;\n            else\n                return 7;\n        }\n        else\n            return 3;\n    }\n\n// [SuperAdmin]\n    function changeSuperAdmin(address _addr)public {\n        require(msg.sender==superAdmin,\"you are not superAdmin\");\n\n        superAdmin=_addr;\n    }\n\n// [SuperAdmin]\n    function addPhysicalVerification(address _addr1) public {\n       require(msg.sender==superAdmin,\"you are not contractOwner\");\n        physicalVerification = _addr1;\n    }\n\n    //-----------------------------------------------Admin-----------------------------------------------\n\n// [SuperAdmin]\n    function addAdmin(address _addr,string memory _name, uint _age, string memory _designation,string memory _city) public returns(bool){\n        if(superAdmin!=msg.sender)\n            return false;\n        require(superAdmin==msg.sender);\n        RegisteredAdminMapping[_addr]=true;\n        allAdminList[1].push(_addr);\n        AdminMapping[_addr] = Admin(adminCount,_addr,_name, _age, _designation,_city);\n        return true;\n    }\n\n//  [SuperAdmin]\n    function ReturnAllAdminList() public view returns(address[] memory){\n        return allAdminList[1];\n    }\n\n    function removeAdminAuthFailed(address _addr) public{\n        require(RegisteredAdminMapping[_addr],\"Admin not found\");\n        RegisteredAdminMapping[_addr]=false;\n\n\n        uint len=allAdminList[1].length;\n        for(uint i=0;i<len;i++)\n        {\n            if(allAdminList[1][i]==_addr)\n            {\n                allAdminList[1][i]=allAdminList[1][len-1];\n                allAdminList[1].pop();\n                break;\n            }\n        }\n    }\n \n//  [SuperAdmin]\n    function removeAdmin(address _addr) public{\n        require(msg.sender==superAdmin,\"You are not Super Admin\");\n        require(RegisteredAdminMapping[_addr],\"Admin not found\");\n        RegisteredAdminMapping[_addr]=false;\n\n\n        uint len=allAdminList[1].length;\n        for(uint i=0;i<len;i++)\n        {\n            if(allAdminList[1][i]==_addr)\n            {\n                allAdminList[1][i]=allAdminList[1][len-1];\n                allAdminList[1].pop();\n                break;\n            }\n        }\n    }\n\n// general\n    function isAdmin(address _id) public view returns (bool) {\n        if(RegisteredAdminMapping[_id]){\n            return true;\n        }else{\n            return false;\n        }\n    }\n\n    //-----------------------------------------------User-----------------------------------------------\n\n// general\n    function isUserRegistered(address _addr) public view returns(bool){\n        if(RegisteredUserMapping[_addr]){\n            return true;\n        }else{\n            return false;\n        }\n    }\n\n// [Users]\n    function registerUser(string memory _name, uint _age, string memory _city, string memory _cnic, uint _mobile\n    ) public {\n\n        require(!RegisteredUserMapping[msg.sender]);\n\n        RegisteredUserMapping[msg.sender] = true;\n        userCount++;\n        allUsersList[1].push(msg.sender);\n        AllUsers[userCount]=msg.sender;\n        UserMapping[msg.sender] = User(msg.sender, _name, _age, _city, _cnic, _mobile, false);\n        //emit Registration(msg.sender);\n    }\n    \n// general\n    function isUserVerified(address id) public view returns(bool){\n        return UserMapping[id].isUserVerified;\n    }\n\n\n// [admin]\n    function verifyUser(address _userId) public{\n        require(isAdmin(msg.sender));\n        UserMapping[_userId].isUserVerified=true;\n    }\n\n// [admin]   \n    function ReturnAllUserList() public view returns(address[] memory){\n        return allUsersList[1];\n    }\n\n// [admin]  \n    function removeUser(address _addr) public{\n        require(isAdmin(msg.sender));\n        require(RegisteredUserMapping[_addr],\"User not found\");\n        RegisteredUserMapping[_addr]=false;\n\n\n        uint len=allUsersList[1].length;\n        for(uint i=0;i<len;i++)\n        {\n            if(allUsersList[1][i]==_addr)\n            {\n                allUsersList[1][i]=allUsersList[1][len-1];\n                allUsersList[1].pop();\n                break;\n            }\n        }\n    }\n}",
  "sourcePath": "D:\\Projects\\FYP\\backend_truffle\\contracts\\EthLand.sol",
  "compiler": {
    "name": "solc",
    "version": "0.8.15+commit.e14f2714.Emscripten.clang"
  },
  "schemaVersion": "3.4.8",
  "updatedAt": "2022-09-20T20:00:03.627Z",
  "networkType": "ethereum",
  "devdoc": {
    "kind": "dev",
    "methods": {},
    "version": 1
  },
  "userdoc": {
    "kind": "user",
    "methods": {},
    "version": 1
  }
}